{
  "_format": "hh-sol-artifact-1",
  "contractName": "MyEpicNFT",
  "sourceName": "contracts/MyEpicNFT.sol",
  "abi": [
    {
      "inputs": [],
      "stateMutability": "nonpayable",
      "type": "constructor"
    },
    {
      "anonymous": false,
      "inputs": [
        {
          "indexed": true,
          "internalType": "address",
          "name": "owner",
          "type": "address"
        },
        {
          "indexed": true,
          "internalType": "address",
          "name": "approved",
          "type": "address"
        },
        {
          "indexed": true,
          "internalType": "uint256",
          "name": "tokenId",
          "type": "uint256"
        }
      ],
      "name": "Approval",
      "type": "event"
    },
    {
      "anonymous": false,
      "inputs": [
        {
          "indexed": true,
          "internalType": "address",
          "name": "owner",
          "type": "address"
        },
        {
          "indexed": true,
          "internalType": "address",
          "name": "operator",
          "type": "address"
        },
        {
          "indexed": false,
          "internalType": "bool",
          "name": "approved",
          "type": "bool"
        }
      ],
      "name": "ApprovalForAll",
      "type": "event"
    },
    {
      "anonymous": false,
      "inputs": [
        {
          "indexed": false,
          "internalType": "address",
          "name": "sender",
          "type": "address"
        },
        {
          "indexed": false,
          "internalType": "uint256",
          "name": "tokenId",
          "type": "uint256"
        }
      ],
      "name": "NewEpicNFTMinted",
      "type": "event"
    },
    {
      "anonymous": false,
      "inputs": [
        {
          "indexed": true,
          "internalType": "address",
          "name": "from",
          "type": "address"
        },
        {
          "indexed": true,
          "internalType": "address",
          "name": "to",
          "type": "address"
        },
        {
          "indexed": true,
          "internalType": "uint256",
          "name": "tokenId",
          "type": "uint256"
        }
      ],
      "name": "Transfer",
      "type": "event"
    },
    {
      "inputs": [
        {
          "internalType": "address",
          "name": "to",
          "type": "address"
        },
        {
          "internalType": "uint256",
          "name": "tokenId",
          "type": "uint256"
        }
      ],
      "name": "approve",
      "outputs": [],
      "stateMutability": "nonpayable",
      "type": "function"
    },
    {
      "inputs": [
        {
          "internalType": "address",
          "name": "owner",
          "type": "address"
        }
      ],
      "name": "balanceOf",
      "outputs": [
        {
          "internalType": "uint256",
          "name": "",
          "type": "uint256"
        }
      ],
      "stateMutability": "view",
      "type": "function"
    },
    {
      "inputs": [
        {
          "internalType": "uint256",
          "name": "tokenId",
          "type": "uint256"
        }
      ],
      "name": "getApproved",
      "outputs": [
        {
          "internalType": "address",
          "name": "",
          "type": "address"
        }
      ],
      "stateMutability": "view",
      "type": "function"
    },
    {
      "inputs": [
        {
          "internalType": "address",
          "name": "owner",
          "type": "address"
        },
        {
          "internalType": "address",
          "name": "operator",
          "type": "address"
        }
      ],
      "name": "isApprovedForAll",
      "outputs": [
        {
          "internalType": "bool",
          "name": "",
          "type": "bool"
        }
      ],
      "stateMutability": "view",
      "type": "function"
    },
    {
      "inputs": [],
      "name": "makeAnEpicNFT",
      "outputs": [],
      "stateMutability": "nonpayable",
      "type": "function"
    },
    {
      "inputs": [],
      "name": "name",
      "outputs": [
        {
          "internalType": "string",
          "name": "",
          "type": "string"
        }
      ],
      "stateMutability": "view",
      "type": "function"
    },
    {
      "inputs": [
        {
          "internalType": "uint256",
          "name": "tokenId",
          "type": "uint256"
        }
      ],
      "name": "ownerOf",
      "outputs": [
        {
          "internalType": "address",
          "name": "",
          "type": "address"
        }
      ],
      "stateMutability": "view",
      "type": "function"
    },
    {
      "inputs": [
        {
          "internalType": "uint256",
          "name": "tokenId",
          "type": "uint256"
        }
      ],
      "name": "pickRandomColor",
      "outputs": [
        {
          "internalType": "string",
          "name": "",
          "type": "string"
        }
      ],
      "stateMutability": "view",
      "type": "function"
    },
    {
      "inputs": [
        {
          "internalType": "uint256",
          "name": "tokenId",
          "type": "uint256"
        }
      ],
      "name": "pickRandomFirstWord",
      "outputs": [
        {
          "internalType": "string",
          "name": "",
          "type": "string"
        }
      ],
      "stateMutability": "view",
      "type": "function"
    },
    {
      "inputs": [
        {
          "internalType": "uint256",
          "name": "tokenId",
          "type": "uint256"
        }
      ],
      "name": "pickRandomSecondWord",
      "outputs": [
        {
          "internalType": "string",
          "name": "",
          "type": "string"
        }
      ],
      "stateMutability": "view",
      "type": "function"
    },
    {
      "inputs": [
        {
          "internalType": "uint256",
          "name": "tokenId",
          "type": "uint256"
        }
      ],
      "name": "pickRandomThirdWord",
      "outputs": [
        {
          "internalType": "string",
          "name": "",
          "type": "string"
        }
      ],
      "stateMutability": "view",
      "type": "function"
    },
    {
      "inputs": [
        {
          "internalType": "address",
          "name": "from",
          "type": "address"
        },
        {
          "internalType": "address",
          "name": "to",
          "type": "address"
        },
        {
          "internalType": "uint256",
          "name": "tokenId",
          "type": "uint256"
        }
      ],
      "name": "safeTransferFrom",
      "outputs": [],
      "stateMutability": "nonpayable",
      "type": "function"
    },
    {
      "inputs": [
        {
          "internalType": "address",
          "name": "from",
          "type": "address"
        },
        {
          "internalType": "address",
          "name": "to",
          "type": "address"
        },
        {
          "internalType": "uint256",
          "name": "tokenId",
          "type": "uint256"
        },
        {
          "internalType": "bytes",
          "name": "_data",
          "type": "bytes"
        }
      ],
      "name": "safeTransferFrom",
      "outputs": [],
      "stateMutability": "nonpayable",
      "type": "function"
    },
    {
      "inputs": [
        {
          "internalType": "address",
          "name": "operator",
          "type": "address"
        },
        {
          "internalType": "bool",
          "name": "approved",
          "type": "bool"
        }
      ],
      "name": "setApprovalForAll",
      "outputs": [],
      "stateMutability": "nonpayable",
      "type": "function"
    },
    {
      "inputs": [
        {
          "internalType": "bytes4",
          "name": "interfaceId",
          "type": "bytes4"
        }
      ],
      "name": "supportsInterface",
      "outputs": [
        {
          "internalType": "bool",
          "name": "",
          "type": "bool"
        }
      ],
      "stateMutability": "view",
      "type": "function"
    },
    {
      "inputs": [],
      "name": "symbol",
      "outputs": [
        {
          "internalType": "string",
          "name": "",
          "type": "string"
        }
      ],
      "stateMutability": "view",
      "type": "function"
    },
    {
      "inputs": [
        {
          "internalType": "uint256",
          "name": "tokenId",
          "type": "uint256"
        }
      ],
      "name": "tokenURI",
      "outputs": [
        {
          "internalType": "string",
          "name": "",
          "type": "string"
        }
      ],
      "stateMutability": "view",
      "type": "function"
    },
    {
      "inputs": [
        {
          "internalType": "address",
          "name": "from",
          "type": "address"
        },
        {
          "internalType": "address",
          "name": "to",
          "type": "address"
        },
        {
          "internalType": "uint256",
          "name": "tokenId",
          "type": "uint256"
        }
      ],
      "name": "transferFrom",
      "outputs": [],
      "stateMutability": "nonpayable",
      "type": "function"
    }
  ],
  "bytecode": "0x608060405260405180610160016040528061012f8152602001620044e061012f9139600890805190602001906200003892919062000786565b506040518060c001604052806040518060400160405280600481526020017f426c75650000000000000000000000000000000000000000000000000000000081525081526020016040518060400160405280600681526020017f59656c6c6f77000000000000000000000000000000000000000000000000000081525081526020016040518060400160405280600581526020017f477265656e00000000000000000000000000000000000000000000000000000081525081526020016040518060400160405280600381526020017f526564000000000000000000000000000000000000000000000000000000000081525081526020016040518060400160405280600681526020017f4f72616e6765000000000000000000000000000000000000000000000000000081525081526020016040518060400160405280600681526020017f507572706c6500000000000000000000000000000000000000000000000000008152508152506009906006620001b692919062000817565b506040518060c001604052806040518060400160405280600481526020017f42616e6b0000000000000000000000000000000000000000000000000000000081525081526020016040518060400160405280600481526020017f42616c6c0000000000000000000000000000000000000000000000000000000081525081526020016040518060400160405280600481526020017f426174680000000000000000000000000000000000000000000000000000000081525081526020016040518060400160405280600481526020017f4261726b0000000000000000000000000000000000000000000000000000000081525081526020016040518060400160405280600481526020017f42616e650000000000000000000000000000000000000000000000000000000081525081526020016040518060400160405280600481526020017f42616c6d00000000000000000000000000000000000000000000000000000000815250815250600a9060066200033492919062000817565b506040518060c001604052806040518060400160405280600881526020017f436f6d707574657200000000000000000000000000000000000000000000000081525081526020016040518060400160405280600a81526020017f5072696e6369706c65730000000000000000000000000000000000000000000081525081526020016040518060400160405280600481526020017f446174610000000000000000000000000000000000000000000000000000000081525081526020016040518060400160405280600a81526020017f4d616e6167656d656e740000000000000000000000000000000000000000000081525081526020016040518060400160405280600881526020017f446973637265746500000000000000000000000000000000000000000000000081525081526020016040518060400160405280600a81526020017f5374727563747572657300000000000000000000000000000000000000000000815250815250600b906006620004b292919062000817565b5060405180608001604052806040518060400160405280600381526020017f726564000000000000000000000000000000000000000000000000000000000081525081526020016040518060400160405280600681526020017f79656c6c6f77000000000000000000000000000000000000000000000000000081525081526020016040518060400160405280600481526020017f626c75650000000000000000000000000000000000000000000000000000000081525081526020016040518060400160405280600581526020017f677265656e000000000000000000000000000000000000000000000000000000815250815250600c906004620005ba9291906200087e565b50348015620005c857600080fd5b506040518060400160405280600981526020017f5371756172654e465400000000000000000000000000000000000000000000008152506040518060400160405280600681526020017f535155415245000000000000000000000000000000000000000000000000000081525081600090805190602001906200064d92919062000786565b5080600190805190602001906200066692919062000786565b505050620006b46040518060400160405280601e81526020017f54686973206973206d79204e465420636f6e74726163742e20576f6168210000815250620006ba60201b620013901760201c565b62000a9f565b6200075a81604051602401620006d19190620009b3565b6040516020818303038152906040527f41304fac000000000000000000000000000000000000000000000000000000007bffffffffffffffffffffffffffffffffffffffffffffffffffffffff19166020820180517bffffffffffffffffffffffffffffffffffffffffffffffffffffffff83818316178352505050506200075d60201b60201c565b50565b60008151905060006a636f6e736f6c652e6c6f679050602083016000808483855afa5050505050565b828054620007949062000a29565b90600052602060002090601f016020900481019282620007b8576000855562000804565b82601f10620007d357805160ff191683800117855562000804565b8280016001018555821562000804579182015b8281111562000803578251825591602001919060010190620007e6565b5b509050620008139190620008e5565b5090565b8280548282559060005260206000209081019282156200086b579160200282015b828111156200086a5782518290805190602001906200085992919062000786565b509160200191906001019062000838565b5b5090506200087a919062000904565b5090565b828054828255906000526020600020908101928215620008d2579160200282015b82811115620008d1578251829080519060200190620008c092919062000786565b50916020019190600101906200089f565b5b509050620008e1919062000904565b5090565b5b8082111562000900576000816000905550600101620008e6565b5090565b5b808211156200092857600081816200091e91906200092c565b5060010162000905565b5090565b5080546200093a9062000a29565b6000825580601f106200094e57506200096f565b601f0160209004906000526020600020908101906200096e9190620008e5565b5b50565b60006200097f82620009d7565b6200098b8185620009e2565b93506200099d818560208601620009f3565b620009a88162000a8e565b840191505092915050565b60006020820190508181036000830152620009cf818462000972565b905092915050565b600081519050919050565b600082825260208201905092915050565b60005b8381101562000a13578082015181840152602081019050620009f6565b8381111562000a23576000848401525b50505050565b6000600282049050600182168062000a4257607f821691505b6020821081141562000a595762000a5862000a5f565b5b50919050565b7f4e487b7100000000000000000000000000000000000000000000000000000000600052602260045260246000fd5b6000601f19601f8301169050919050565b613a318062000aaf6000396000f3fe608060405234801561001057600080fd5b50600436106101165760003560e01c806370a08231116100a2578063b88d4fde11610071578063b88d4fde14610317578063c575757a14610333578063c87b56dd14610363578063de9d132f14610393578063e985e9c51461039d57610116565b806370a082311461027d57806395d89b41146102ad578063a22cb465146102cb578063b187301f146102e757610116565b806323b872dd116100e957806323b872dd146101b55780632de38d68146101d157806342842e0e14610201578063514dc8c61461021d5780636352211e1461024d57610116565b806301ffc9a71461011b57806306fdde031461014b578063081812fc14610169578063095ea7b314610199575b600080fd5b61013560048036038101906101309190612623565b6103cd565b60405161014291906132a7565b60405180910390f35b6101536104af565b60405161016091906132c2565b60405180910390f35b610183600480360381019061017e9190612675565b610541565b6040516101909190613217565b60405180910390f35b6101b360048036038101906101ae91906125e7565b6105c6565b005b6101cf60048036038101906101ca91906124e1565b6106de565b005b6101eb60048036038101906101e69190612675565b61073e565b6040516101f891906132c2565b60405180910390f35b61021b600480360381019061021691906124e1565b61085c565b005b61023760048036038101906102329190612675565b61087c565b60405161024491906132c2565b60405180910390f35b61026760048036038101906102629190612675565b61099a565b6040516102749190613217565b60405180910390f35b6102976004803603810190610292919061247c565b610a4c565b6040516102a49190613522565b60405180910390f35b6102b5610b04565b6040516102c291906132c2565b60405180910390f35b6102e560048036038101906102e091906125ab565b610b96565b005b61030160048036038101906102fc9190612675565b610d17565b60405161030e91906132c2565b60405180910390f35b610331600480360381019061032c9190612530565b610e35565b005b61034d60048036038101906103489190612675565b610e97565b60405161035a91906132c2565b60405180910390f35b61037d60048036038101906103789190612675565b610fb5565b60405161038a91906132c2565b60405180910390f35b61039b611107565b005b6103b760048036038101906103b291906124a5565b6112fc565b6040516103c491906132a7565b60405180910390f35b60007f80ac58cd000000000000000000000000000000000000000000000000000000007bffffffffffffffffffffffffffffffffffffffffffffffffffffffff1916827bffffffffffffffffffffffffffffffffffffffffffffffffffffffff1916148061049857507f5b5e139f000000000000000000000000000000000000000000000000000000007bffffffffffffffffffffffffffffffffffffffffffffffffffffffff1916827bffffffffffffffffffffffffffffffffffffffffffffffffffffffff1916145b806104a857506104a782611429565b5b9050919050565b6060600080546104be906137c1565b80601f01602080910402602001604051908101604052809291908181526020018280546104ea906137c1565b80156105375780601f1061050c57610100808354040283529160200191610537565b820191906000526020600020905b81548152906001019060200180831161051a57829003601f168201915b5050505050905090565b600061054c82611493565b61058b576040517f08c379a000000000000000000000000000000000000000000000000000000000815260040161058290613482565b60405180910390fd5b6004600083815260200190815260200160002060009054906101000a900473ffffffffffffffffffffffffffffffffffffffff169050919050565b60006105d18261099a565b90508073ffffffffffffffffffffffffffffffffffffffff168373ffffffffffffffffffffffffffffffffffffffff161415610642576040517f08c379a0000000000000000000000000000000000000000000000000000000008152600401610639906134e2565b60405180910390fd5b8073ffffffffffffffffffffffffffffffffffffffff166106616114ff565b73ffffffffffffffffffffffffffffffffffffffff161480610690575061068f8161068a6114ff565b6112fc565b5b6106cf576040517f08c379a00000000000000000000000000000000000000000000000000000000081526004016106c6906133c2565b60405180910390fd5b6106d98383611507565b505050565b6106ef6106e96114ff565b826115c0565b61072e576040517f08c379a000000000000000000000000000000000000000000000000000000000815260040161072590613502565b60405180910390fd5b61073983838361169e565b505050565b6060600061077261074e846118fa565b60405160200161075e91906131b1565b604051602081830303815290604052611aa7565b905060098054905081610785919061383c565b9050600981815481106107c1577f4e487b7100000000000000000000000000000000000000000000000000000000600052603260045260246000fd5b9060005260206000200180546107d6906137c1565b80601f0160208091040260200160405190810160405280929190818152602001828054610802906137c1565b801561084f5780601f106108245761010080835404028352916020019161084f565b820191906000526020600020905b81548152906001019060200180831161083257829003601f168201915b5050505050915050919050565b61087783838360405180602001604052806000815250610e35565b505050565b606060006108b061088c846118fa565b60405160200161089c91906131f5565b604051602081830303815290604052611aa7565b9050600c80549050816108c3919061383c565b9050600c81815481106108ff577f4e487b7100000000000000000000000000000000000000000000000000000000600052603260045260246000fd5b906000526020600020018054610914906137c1565b80601f0160208091040260200160405190810160405280929190818152602001828054610940906137c1565b801561098d5780601f106109625761010080835404028352916020019161098d565b820191906000526020600020905b81548152906001019060200180831161097057829003601f168201915b5050505050915050919050565b6000806002600084815260200190815260200160002060009054906101000a900473ffffffffffffffffffffffffffffffffffffffff169050600073ffffffffffffffffffffffffffffffffffffffff168173ffffffffffffffffffffffffffffffffffffffff161415610a43576040517f08c379a0000000000000000000000000000000000000000000000000000000008152600401610a3a90613402565b60405180910390fd5b80915050919050565b60008073ffffffffffffffffffffffffffffffffffffffff168273ffffffffffffffffffffffffffffffffffffffff161415610abd576040517f08c379a0000000000000000000000000000000000000000000000000000000008152600401610ab4906133e2565b60405180910390fd5b600360008373ffffffffffffffffffffffffffffffffffffffff1673ffffffffffffffffffffffffffffffffffffffff168152602001908152602001600020549050919050565b606060018054610b13906137c1565b80601f0160208091040260200160405190810160405280929190818152602001828054610b3f906137c1565b8015610b8c5780601f10610b6157610100808354040283529160200191610b8c565b820191906000526020600020905b815481529060010190602001808311610b6f57829003601f168201915b5050505050905090565b610b9e6114ff565b73ffffffffffffffffffffffffffffffffffffffff168273ffffffffffffffffffffffffffffffffffffffff161415610c0c576040517f08c379a0000000000000000000000000000000000000000000000000000000008152600401610c0390613382565b60405180910390fd5b8060056000610c196114ff565b73ffffffffffffffffffffffffffffffffffffffff1673ffffffffffffffffffffffffffffffffffffffff16815260200190815260200160002060008473ffffffffffffffffffffffffffffffffffffffff1673ffffffffffffffffffffffffffffffffffffffff16815260200190815260200160002060006101000a81548160ff0219169083151502179055508173ffffffffffffffffffffffffffffffffffffffff16610cc66114ff565b73ffffffffffffffffffffffffffffffffffffffff167f17307eab39ab6107e8899845ad3d59bd9653f200f220920489ca2b5937696c3183604051610d0b91906132a7565b60405180910390a35050565b60606000610d4b610d27846118fa565b604051602001610d37919061314a565b604051602081830303815290604052611aa7565b9050600a8054905081610d5e919061383c565b9050600a8181548110610d9a577f4e487b7100000000000000000000000000000000000000000000000000000000600052603260045260246000fd5b906000526020600020018054610daf906137c1565b80601f0160208091040260200160405190810160405280929190818152602001828054610ddb906137c1565b8015610e285780601f10610dfd57610100808354040283529160200191610e28565b820191906000526020600020905b815481529060010190602001808311610e0b57829003601f168201915b5050505050915050919050565b610e46610e406114ff565b836115c0565b610e85576040517f08c379a0000000000000000000000000000000000000000000000000000000008152600401610e7c90613502565b60405180910390fd5b610e9184848484611ada565b50505050565b60606000610ecb610ea7846118fa565b604051602001610eb79190613128565b604051602081830303815290604052611aa7565b9050600b8054905081610ede919061383c565b9050600b8181548110610f1a577f4e487b7100000000000000000000000000000000000000000000000000000000600052603260045260246000fd5b906000526020600020018054610f2f906137c1565b80601f0160208091040260200160405190810160405280929190818152602001828054610f5b906137c1565b8015610fa85780601f10610f7d57610100808354040283529160200191610fa8565b820191906000526020600020905b815481529060010190602001808311610f8b57829003601f168201915b5050505050915050919050565b6060610fc082611493565b610fff576040517f08c379a0000000000000000000000000000000000000000000000000000000008152600401610ff690613462565b60405180910390fd5b600060066000848152602001908152602001600020805461101f906137c1565b80601f016020809104026020016040519081016040528092919081815260200182805461104b906137c1565b80156110985780601f1061106d57610100808354040283529160200191611098565b820191906000526020600020905b81548152906001019060200180831161107b57829003601f168201915b5050505050905060006110a9611b36565b90506000815114156110bf578192505050611102565b6000825111156110f45780826040516020016110dc9291906130a4565b60405160208183030381529060405292505050611102565b6110fd84611b4d565b925050505b919050565b60006111136007611bf4565b905060006111208261073e565b9050600061112d83610d17565b9050600061113a84610e97565b90506000838383604051602001611153939291906130c8565b6040516020818303038152906040529050600061116f8661087c565b905060006008836040516020016111879291906130f9565b604051602081830303815290604052905060006111cc846111a784611c02565b6040516020016111b892919061316c565b604051602081830303815290604052611c02565b90506000816040516020016111e191906131d3565b60405160208183030381529060405290506112306040518060400160405280601581526020017f0a2d2d2d2d2d2d2d2d2d2d2d2d2d2d2d2d2d2d2d2d0000000000000000000000815250611390565b61123981611390565b6112776040518060400160405280601581526020017f2d2d2d2d2d2d2d2d2d2d2d2d2d2d2d2d2d2d2d2d0a0000000000000000000000815250611390565b611281338a611dc0565b61128b8982611dde565b6112956007611e52565b6112b8604051806060016040528060258152602001613997602591398a33611e68565b7febb98688741ffa4c7589bf325de30cf7becb63de567842e1ccdb6cb949fdc82c338a6040516112e992919061327e565b60405180910390a1505050505050505050565b6000600560008473ffffffffffffffffffffffffffffffffffffffff1673ffffffffffffffffffffffffffffffffffffffff16815260200190815260200160002060008373ffffffffffffffffffffffffffffffffffffffff1673ffffffffffffffffffffffffffffffffffffffff16815260200190815260200160002060009054906101000a900460ff16905092915050565b611426816040516024016113a491906132c2565b6040516020818303038152906040527f41304fac000000000000000000000000000000000000000000000000000000007bffffffffffffffffffffffffffffffffffffffffffffffffffffffff19166020820180517bffffffffffffffffffffffffffffffffffffffffffffffffffffffff8381831617835250505050611f07565b50565b60007f01ffc9a7000000000000000000000000000000000000000000000000000000007bffffffffffffffffffffffffffffffffffffffffffffffffffffffff1916827bffffffffffffffffffffffffffffffffffffffffffffffffffffffff1916149050919050565b60008073ffffffffffffffffffffffffffffffffffffffff166002600084815260200190815260200160002060009054906101000a900473ffffffffffffffffffffffffffffffffffffffff1673ffffffffffffffffffffffffffffffffffffffff1614159050919050565b600033905090565b816004600083815260200190815260200160002060006101000a81548173ffffffffffffffffffffffffffffffffffffffff021916908373ffffffffffffffffffffffffffffffffffffffff160217905550808273ffffffffffffffffffffffffffffffffffffffff1661157a8361099a565b73ffffffffffffffffffffffffffffffffffffffff167f8c5be1e5ebec7d5bd14f71427d1e84f3dd0314c0f7b2291e5b200ac8c7c3b92560405160405180910390a45050565b60006115cb82611493565b61160a576040517f08c379a0000000000000000000000000000000000000000000000000000000008152600401611601906133a2565b60405180910390fd5b60006116158361099a565b90508073ffffffffffffffffffffffffffffffffffffffff168473ffffffffffffffffffffffffffffffffffffffff16148061168457508373ffffffffffffffffffffffffffffffffffffffff1661166c84610541565b73ffffffffffffffffffffffffffffffffffffffff16145b80611695575061169481856112fc565b5b91505092915050565b8273ffffffffffffffffffffffffffffffffffffffff166116be8261099a565b73ffffffffffffffffffffffffffffffffffffffff1614611714576040517f08c379a000000000000000000000000000000000000000000000000000000000815260040161170b906134a2565b60405180910390fd5b600073ffffffffffffffffffffffffffffffffffffffff168273ffffffffffffffffffffffffffffffffffffffff161415611784576040517f08c379a000000000000000000000000000000000000000000000000000000000815260040161177b90613362565b60405180910390fd5b61178f838383611f30565b61179a600082611507565b6001600360008573ffffffffffffffffffffffffffffffffffffffff1673ffffffffffffffffffffffffffffffffffffffff16815260200190815260200160002060008282546117ea91906136d7565b925050819055506001600360008473ffffffffffffffffffffffffffffffffffffffff1673ffffffffffffffffffffffffffffffffffffffff168152602001908152602001600020600082825461184191906135f6565b92505081905550816002600083815260200190815260200160002060006101000a81548173ffffffffffffffffffffffffffffffffffffffff021916908373ffffffffffffffffffffffffffffffffffffffff160217905550808273ffffffffffffffffffffffffffffffffffffffff168473ffffffffffffffffffffffffffffffffffffffff167fddf252ad1be2c89b69c2b068fc378daa952ba7f163c4a11628f55a4df523b3ef60405160405180910390a4505050565b60606000821415611942576040518060400160405280600181526020017f30000000000000000000000000000000000000000000000000000000000000008152509050611aa2565b600082905060005b6000821461197457808061195d906137f3565b915050600a8261196d919061364c565b915061194a565b60008167ffffffffffffffff8111156119b6577f4e487b7100000000000000000000000000000000000000000000000000000000600052604160045260246000fd5b6040519080825280601f01601f1916602001820160405280156119e85781602001600182028036833780820191505090505b5090505b60008514611a9b57600182611a0191906136d7565b9150600a85611a10919061383c565b6030611a1c91906135f6565b60f81b818381518110611a58577f4e487b7100000000000000000000000000000000000000000000000000000000600052603260045260246000fd5b60200101907effffffffffffffffffffffffffffffffffffffffffffffffffffffffffffff1916908160001a905350600a85611a94919061364c565b94506119ec565b8093505050505b919050565b600081604051602001611aba919061308d565b6040516020818303038152906040528051906020012060001c9050919050565b611ae584848461169e565b611af184848484611f35565b611b30576040517f08c379a0000000000000000000000000000000000000000000000000000000008152600401611b2790613322565b60405180910390fd5b50505050565b606060405180602001604052806000815250905090565b6060611b5882611493565b611b97576040517f08c379a0000000000000000000000000000000000000000000000000000000008152600401611b8e906134c2565b60405180910390fd5b6000611ba1611b36565b90506000815111611bc15760405180602001604052806000815250611bec565b80611bcb846118fa565b604051602001611bdc9291906130a4565b6040516020818303038152906040525b915050919050565b600081600001549050919050565b60606000825190506000811415611c2b5760405180602001604052806000815250915050611dbb565b60006003600283611c3c91906135f6565b611c46919061364c565b6004611c52919061367d565b90506000602082611c6391906135f6565b67ffffffffffffffff811115611ca2577f4e487b7100000000000000000000000000000000000000000000000000000000600052604160045260246000fd5b6040519080825280601f01601f191660200182016040528015611cd45781602001600182028036833780820191505090505b50905060006040518060600160405280604081526020016139bc604091399050600181016020830160005b86811015611d785760038101905062ffffff818a015116603f8160121c168401518060081b905060ff603f83600c1c1686015116810190508060081b905060ff603f8360061c1686015116810190508060081b905060ff603f831686015116810190508060e01b90508084526004840193505050611cff565b506003860660018114611d925760028114611da257611dad565b613d3d60f01b6002830352611dad565b603d60f81b60018303525b508484525050819450505050505b919050565b611dda8282604051806020016040528060008152506120cc565b5050565b611de782611493565b611e26576040517f08c379a0000000000000000000000000000000000000000000000000000000008152600401611e1d90613422565b60405180910390fd5b80600660008481526020019081526020016000209080519060200190611e4d929190612308565b505050565b6001816000016000828254019250508190555050565b611f02838383604051602401611e80939291906132e4565b6040516020818303038152906040527fe3849f79000000000000000000000000000000000000000000000000000000007bffffffffffffffffffffffffffffffffffffffffffffffffffffffff19166020820180517bffffffffffffffffffffffffffffffffffffffffffffffffffffffff8381831617835250505050611f07565b505050565b60008151905060006a636f6e736f6c652e6c6f679050602083016000808483855afa5050505050565b505050565b6000611f568473ffffffffffffffffffffffffffffffffffffffff16612127565b156120bf578373ffffffffffffffffffffffffffffffffffffffff1663150b7a02611f7f6114ff565b8786866040518563ffffffff1660e01b8152600401611fa19493929190613232565b602060405180830381600087803b158015611fbb57600080fd5b505af1925050508015611fec57506040513d601f19601f82011682018060405250810190611fe9919061264c565b60015b61206f573d806000811461201c576040519150601f19603f3d011682016040523d82523d6000602084013e612021565b606091505b50600081511415612067576040517f08c379a000000000000000000000000000000000000000000000000000000000815260040161205e90613322565b60405180910390fd5b805181602001fd5b63150b7a0260e01b7bffffffffffffffffffffffffffffffffffffffffffffffffffffffff1916817bffffffffffffffffffffffffffffffffffffffffffffffffffffffff1916149150506120c4565b600190505b949350505050565b6120d6838361213a565b6120e36000848484611f35565b612122576040517f08c379a000000000000000000000000000000000000000000000000000000000815260040161211990613322565b60405180910390fd5b505050565b600080823b905060008111915050919050565b600073ffffffffffffffffffffffffffffffffffffffff168273ffffffffffffffffffffffffffffffffffffffff1614156121aa576040517f08c379a00000000000000000000000000000000000000000000000000000000081526004016121a190613442565b60405180910390fd5b6121b381611493565b156121f3576040517f08c379a00000000000000000000000000000000000000000000000000000000081526004016121ea90613342565b60405180910390fd5b6121ff60008383611f30565b6001600360008473ffffffffffffffffffffffffffffffffffffffff1673ffffffffffffffffffffffffffffffffffffffff168152602001908152602001600020600082825461224f91906135f6565b92505081905550816002600083815260200190815260200160002060006101000a81548173ffffffffffffffffffffffffffffffffffffffff021916908373ffffffffffffffffffffffffffffffffffffffff160217905550808273ffffffffffffffffffffffffffffffffffffffff16600073ffffffffffffffffffffffffffffffffffffffff167fddf252ad1be2c89b69c2b068fc378daa952ba7f163c4a11628f55a4df523b3ef60405160405180910390a45050565b828054612314906137c1565b90600052602060002090601f016020900481019282612336576000855561237d565b82601f1061234f57805160ff191683800117855561237d565b8280016001018555821561237d579182015b8281111561237c578251825591602001919060010190612361565b5b50905061238a919061238e565b5090565b5b808211156123a757600081600090555060010161238f565b5090565b60006123be6123b98461356e565b61353d565b9050828152602081018484840111156123d657600080fd5b6123e184828561377f565b509392505050565b6000813590506123f88161393a565b92915050565b60008135905061240d81613951565b92915050565b60008135905061242281613968565b92915050565b60008151905061243781613968565b92915050565b600082601f83011261244e57600080fd5b813561245e8482602086016123ab565b91505092915050565b6000813590506124768161397f565b92915050565b60006020828403121561248e57600080fd5b600061249c848285016123e9565b91505092915050565b600080604083850312156124b857600080fd5b60006124c6858286016123e9565b92505060206124d7858286016123e9565b9150509250929050565b6000806000606084860312156124f657600080fd5b6000612504868287016123e9565b9350506020612515868287016123e9565b925050604061252686828701612467565b9150509250925092565b6000806000806080858703121561254657600080fd5b6000612554878288016123e9565b9450506020612565878288016123e9565b935050604061257687828801612467565b925050606085013567ffffffffffffffff81111561259357600080fd5b61259f8782880161243d565b91505092959194509250565b600080604083850312156125be57600080fd5b60006125cc858286016123e9565b92505060206125dd858286016123fe565b9150509250929050565b600080604083850312156125fa57600080fd5b6000612608858286016123e9565b925050602061261985828601612467565b9150509250929050565b60006020828403121561263557600080fd5b600061264384828501612413565b91505092915050565b60006020828403121561265e57600080fd5b600061266c84828501612428565b91505092915050565b60006020828403121561268757600080fd5b600061269584828501612467565b91505092915050565b6126a78161370b565b82525050565b6126b68161371d565b82525050565b60006126c7826135b3565b6126d181856135c9565b93506126e181856020860161378e565b6126ea81613929565b840191505092915050565b6000612700826135be565b61270a81856135da565b935061271a81856020860161378e565b61272381613929565b840191505092915050565b6000612739826135be565b61274381856135eb565b935061275381856020860161378e565b80840191505092915050565b6000815461276c816137c1565b61277681866135eb565b9450600182166000811461279157600181146127a2576127d5565b60ff198316865281860193506127d5565b6127ab8561359e565b60005b838110156127cd578154818901526001820191506020810190506127ae565b838801955050505b50505092915050565b60006127eb6032836135da565b91507f4552433732313a207472616e7366657220746f206e6f6e20455243373231526560008301527f63656976657220696d706c656d656e74657200000000000000000000000000006020830152604082019050919050565b6000612851601c836135da565b91507f4552433732313a20746f6b656e20616c7265616479206d696e746564000000006000830152602082019050919050565b6000612891600a836135eb565b91507f54484952445f574f5244000000000000000000000000000000000000000000006000830152600a82019050919050565b60006128d16024836135da565b91507f4552433732313a207472616e7366657220746f20746865207a65726f2061646460008301527f72657373000000000000000000000000000000000000000000000000000000006020830152604082019050919050565b60006129376019836135da565b91507f4552433732313a20617070726f766520746f2063616c6c6572000000000000006000830152602082019050919050565b60006129776063836135eb565b91507f222c20226465736372697074696f6e223a20224120686967686c79206163636c60008301527f61696d656420636f6c6c656374696f6e206f6620737175617265732e222c202260208301527f696d616765223a2022646174613a696d6167652f7376672b786d6c3b6261736560408301527f36342c00000000000000000000000000000000000000000000000000000000006060830152606382019050919050565b6000612a29600b836135eb565b91507f5345434f4e445f574f52440000000000000000000000000000000000000000006000830152600b82019050919050565b6000612a69602c836135da565b91507f4552433732313a206f70657261746f7220717565727920666f72206e6f6e657860008301527f697374656e7420746f6b656e00000000000000000000000000000000000000006020830152604082019050919050565b6000612acf600d836135eb565b91507f3c2f746578743e3c2f7376673e000000000000000000000000000000000000006000830152600d82019050919050565b6000612b0f6038836135da565b91507f4552433732313a20617070726f76652063616c6c6572206973206e6f74206f7760008301527f6e6572206e6f7220617070726f76656420666f7220616c6c00000000000000006020830152604082019050919050565b6000612b75602a836135da565b91507f4552433732313a2062616c616e636520717565727920666f7220746865207a6560008301527f726f2061646472657373000000000000000000000000000000000000000000006020830152604082019050919050565b6000612bdb6029836135da565b91507f4552433732313a206f776e657220717565727920666f72206e6f6e657869737460008301527f656e7420746f6b656e00000000000000000000000000000000000000000000006020830152604082019050919050565b6000612c41602e836135da565b91507f45524337323155524953746f726167653a2055524920736574206f66206e6f6e60008301527f6578697374656e7420746f6b656e0000000000000000000000000000000000006020830152604082019050919050565b6000612ca76002836135eb565b91507f227d0000000000000000000000000000000000000000000000000000000000006000830152600282019050919050565b6000612ce76020836135da565b91507f4552433732313a206d696e7420746f20746865207a65726f20616464726573736000830152602082019050919050565b6000612d276031836135da565b91507f45524337323155524953746f726167653a2055524920717565727920666f722060008301527f6e6f6e6578697374656e7420746f6b656e0000000000000000000000000000006020830152604082019050919050565b6000612d8d602c836135da565b91507f4552433732313a20617070726f76656420717565727920666f72206e6f6e657860008301527f697374656e7420746f6b656e00000000000000000000000000000000000000006020830152604082019050919050565b6000612df36029836135da565b91507f4552433732313a207472616e73666572206f6620746f6b656e2074686174206960008301527f73206e6f74206f776e00000000000000000000000000000000000000000000006020830152604082019050919050565b6000612e59602f836135da565b91507f4552433732314d657461646174613a2055524920717565727920666f72206e6f60008301527f6e6578697374656e7420746f6b656e00000000000000000000000000000000006020830152604082019050919050565b6000612ebf600a836135eb565b91507f7b226e616d65223a2022000000000000000000000000000000000000000000006000830152600a82019050919050565b6000612eff6021836135da565b91507f4552433732313a20617070726f76616c20746f2063757272656e74206f776e6560008301527f72000000000000000000000000000000000000000000000000000000000000006020830152604082019050919050565b6000612f65600a836135eb565b91507f46495253545f574f5244000000000000000000000000000000000000000000006000830152600a82019050919050565b6000612fa5601d836135eb565b91507f646174613a6170706c69636174696f6e2f6a736f6e3b6261736536342c0000006000830152601d82019050919050565b6000612fe56031836135da565b91507f4552433732313a207472616e736665722063616c6c6572206973206e6f74206f60008301527f776e6572206e6f7220617070726f7665640000000000000000000000000000006020830152604082019050919050565b600061304b6005836135eb565b91507f434f4c4f520000000000000000000000000000000000000000000000000000006000830152600582019050919050565b61308781613775565b82525050565b6000613099828461272e565b915081905092915050565b60006130b0828561272e565b91506130bc828461272e565b91508190509392505050565b60006130d4828661272e565b91506130e0828561272e565b91506130ec828461272e565b9150819050949350505050565b6000613105828561275f565b9150613111828461272e565b915061311c82612ac2565b91508190509392505050565b600061313382612884565b915061313f828461272e565b915081905092915050565b600061315582612a1c565b9150613161828461272e565b915081905092915050565b600061317782612eb2565b9150613183828561272e565b915061318e8261296a565b915061319a828461272e565b91506131a582612c9a565b91508190509392505050565b60006131bc82612f58565b91506131c8828461272e565b915081905092915050565b60006131de82612f98565b91506131ea828461272e565b915081905092915050565b60006132008261303e565b915061320c828461272e565b915081905092915050565b600060208201905061322c600083018461269e565b92915050565b6000608082019050613247600083018761269e565b613254602083018661269e565b613261604083018561307e565b818103606083015261327381846126bc565b905095945050505050565b6000604082019050613293600083018561269e565b6132a0602083018461307e565b9392505050565b60006020820190506132bc60008301846126ad565b92915050565b600060208201905081810360008301526132dc81846126f5565b905092915050565b600060608201905081810360008301526132fe81866126f5565b905061330d602083018561307e565b61331a604083018461269e565b949350505050565b6000602082019050818103600083015261333b816127de565b9050919050565b6000602082019050818103600083015261335b81612844565b9050919050565b6000602082019050818103600083015261337b816128c4565b9050919050565b6000602082019050818103600083015261339b8161292a565b9050919050565b600060208201905081810360008301526133bb81612a5c565b9050919050565b600060208201905081810360008301526133db81612b02565b9050919050565b600060208201905081810360008301526133fb81612b68565b9050919050565b6000602082019050818103600083015261341b81612bce565b9050919050565b6000602082019050818103600083015261343b81612c34565b9050919050565b6000602082019050818103600083015261345b81612cda565b9050919050565b6000602082019050818103600083015261347b81612d1a565b9050919050565b6000602082019050818103600083015261349b81612d80565b9050919050565b600060208201905081810360008301526134bb81612de6565b9050919050565b600060208201905081810360008301526134db81612e4c565b9050919050565b600060208201905081810360008301526134fb81612ef2565b9050919050565b6000602082019050818103600083015261351b81612fd8565b9050919050565b6000602082019050613537600083018461307e565b92915050565b6000604051905081810181811067ffffffffffffffff82111715613564576135636138fa565b5b8060405250919050565b600067ffffffffffffffff821115613589576135886138fa565b5b601f19601f8301169050602081019050919050565b60008190508160005260206000209050919050565b600081519050919050565b600081519050919050565b600082825260208201905092915050565b600082825260208201905092915050565b600081905092915050565b600061360182613775565b915061360c83613775565b9250827fffffffffffffffffffffffffffffffffffffffffffffffffffffffffffffffff038211156136415761364061386d565b5b828201905092915050565b600061365782613775565b915061366283613775565b9250826136725761367161389c565b5b828204905092915050565b600061368882613775565b915061369383613775565b9250817fffffffffffffffffffffffffffffffffffffffffffffffffffffffffffffffff04831182151516156136cc576136cb61386d565b5b828202905092915050565b60006136e282613775565b91506136ed83613775565b925082821015613700576136ff61386d565b5b828203905092915050565b600061371682613755565b9050919050565b60008115159050919050565b60007fffffffff0000000000000000000000000000000000000000000000000000000082169050919050565b600073ffffffffffffffffffffffffffffffffffffffff82169050919050565b6000819050919050565b82818337600083830152505050565b60005b838110156137ac578082015181840152602081019050613791565b838111156137bb576000848401525b50505050565b600060028204905060018216806137d957607f821691505b602082108114156137ed576137ec6138cb565b5b50919050565b60006137fe82613775565b91507fffffffffffffffffffffffffffffffffffffffffffffffffffffffffffffffff8214156138315761383061386d565b5b600182019050919050565b600061384782613775565b915061385283613775565b9250826138625761386161389c565b5b828206905092915050565b7f4e487b7100000000000000000000000000000000000000000000000000000000600052601160045260246000fd5b7f4e487b7100000000000000000000000000000000000000000000000000000000600052601260045260246000fd5b7f4e487b7100000000000000000000000000000000000000000000000000000000600052602260045260246000fd5b7f4e487b7100000000000000000000000000000000000000000000000000000000600052604160045260246000fd5b6000601f19601f8301169050919050565b6139438161370b565b811461394e57600080fd5b50565b61395a8161371d565b811461396557600080fd5b50565b61397181613729565b811461397c57600080fd5b50565b61398881613775565b811461399357600080fd5b5056fe416e204e465420772f20494420257320686173206265656e206d696e74656420746f2025734142434445464748494a4b4c4d4e4f505152535455565758595a6162636465666768696a6b6c6d6e6f707172737475767778797a303132333435363738392b2fa2646970667358221220333787e17013d4597756b01a77a505a198bef36f08ca048aa3a7e8352e52e70f64736f6c634300080000333c73766720786d6c6e733d27687474703a2f2f7777772e77332e6f72672f323030302f73766727207072657365727665417370656374526174696f3d27784d696e594d696e206d656574272076696577426f783d273020302033353020333530273e3c7374796c653e2e62617365207b2066696c6c3a2077686974653b20666f6e742d66616d696c793a2073657269663b20666f6e742d73697a653a20323470783b207d3c2f7374796c653e3c726563742077696474683d273130302527206865696768743d2731303025272066696c6c3d27626c61636b27202f3e3c7465787420783d273530252720793d273530252720636c6173733d27626173652720646f6d696e616e742d626173656c696e653d276d6964646c652720746578742d616e63686f723d276d6964646c65273e",
  "linkReferences": {},
  "deployedLinkReferences": {}
}